{
	"contracts/MyContract3.sol": {
		"MyContract3": {
			"abi": [
				{
					"inputs": [],
					"stateMutability": "nonpayable",
					"type": "constructor"
				},
				{
					"inputs": [],
					"name": "countEvenNumbers",
					"outputs": [
						{
							"internalType": "uint256",
							"name": "",
							"type": "uint256"
						}
					],
					"stateMutability": "view",
					"type": "function"
				},
				{
					"inputs": [
						{
							"internalType": "uint256",
							"name": "_number",
							"type": "uint256"
						}
					],
					"name": "isEven",
					"outputs": [
						{
							"internalType": "bool",
							"name": "",
							"type": "bool"
						}
					],
					"stateMutability": "pure",
					"type": "function"
				},
				{
					"inputs": [],
					"name": "isOwner",
					"outputs": [
						{
							"internalType": "bool",
							"name": "",
							"type": "bool"
						}
					],
					"stateMutability": "view",
					"type": "function"
				},
				{
					"inputs": [
						{
							"internalType": "uint256",
							"name": "",
							"type": "uint256"
						}
					],
					"name": "numbers",
					"outputs": [
						{
							"internalType": "uint256",
							"name": "",
							"type": "uint256"
						}
					],
					"stateMutability": "view",
					"type": "function"
				},
				{
					"inputs": [],
					"name": "owner",
					"outputs": [
						{
							"internalType": "address",
							"name": "",
							"type": "address"
						}
					],
					"stateMutability": "view",
					"type": "function"
				}
			],
			"devdoc": {
				"kind": "dev",
				"methods": {},
				"version": 1
			},
			"evm": {
				"assembly": "    /* \"contracts/MyContract3.sol\":61:803  contract MyContract3{... */\n  mstore(0x40, 0x80)\n    /* \"contracts/MyContract3.sol\":123:169  uint[] public numbers = [1,2,3,4,5,6,7,8,9,10] */\n  mload(0x40)\n  dup1\n  0x0140\n  add\n  0x40\n  mstore\n  dup1\n    /* \"contracts/MyContract3.sol\":148:149  1 */\n  0x01\n    /* \"contracts/MyContract3.sol\":123:169  uint[] public numbers = [1,2,3,4,5,6,7,8,9,10] */\n  0xff\n  and\n  dup2\n  mstore\n  0x20\n  add\n    /* \"contracts/MyContract3.sol\":150:151  2 */\n  0x02\n    /* \"contracts/MyContract3.sol\":123:169  uint[] public numbers = [1,2,3,4,5,6,7,8,9,10] */\n  0xff\n  and\n  dup2\n  mstore\n  0x20\n  add\n    /* \"contracts/MyContract3.sol\":152:153  3 */\n  0x03\n    /* \"contracts/MyContract3.sol\":123:169  uint[] public numbers = [1,2,3,4,5,6,7,8,9,10] */\n  0xff\n  and\n  dup2\n  mstore\n  0x20\n  add\n    /* \"contracts/MyContract3.sol\":154:155  4 */\n  0x04\n    /* \"contracts/MyContract3.sol\":123:169  uint[] public numbers = [1,2,3,4,5,6,7,8,9,10] */\n  0xff\n  and\n  dup2\n  mstore\n  0x20\n  add\n    /* \"contracts/MyContract3.sol\":156:157  5 */\n  0x05\n    /* \"contracts/MyContract3.sol\":123:169  uint[] public numbers = [1,2,3,4,5,6,7,8,9,10] */\n  0xff\n  and\n  dup2\n  mstore\n  0x20\n  add\n    /* \"contracts/MyContract3.sol\":158:159  6 */\n  0x06\n    /* \"contracts/MyContract3.sol\":123:169  uint[] public numbers = [1,2,3,4,5,6,7,8,9,10] */\n  0xff\n  and\n  dup2\n  mstore\n  0x20\n  add\n    /* \"contracts/MyContract3.sol\":160:161  7 */\n  0x07\n    /* \"contracts/MyContract3.sol\":123:169  uint[] public numbers = [1,2,3,4,5,6,7,8,9,10] */\n  0xff\n  and\n  dup2\n  mstore\n  0x20\n  add\n    /* \"contracts/MyContract3.sol\":162:163  8 */\n  0x08\n    /* \"contracts/MyContract3.sol\":123:169  uint[] public numbers = [1,2,3,4,5,6,7,8,9,10] */\n  0xff\n  and\n  dup2\n  mstore\n  0x20\n  add\n    /* \"contracts/MyContract3.sol\":164:165  9 */\n  0x09\n    /* \"contracts/MyContract3.sol\":123:169  uint[] public numbers = [1,2,3,4,5,6,7,8,9,10] */\n  0xff\n  and\n  dup2\n  mstore\n  0x20\n  add\n    /* \"contracts/MyContract3.sol\":166:168  10 */\n  0x0a\n    /* \"contracts/MyContract3.sol\":123:169  uint[] public numbers = [1,2,3,4,5,6,7,8,9,10] */\n  0xff\n  and\n  dup2\n  mstore\n  pop\n  0x00\n  swap1\n  0x0a\n  tag_1\n  swap3\n  swap2\n  swap1\n  tag_2\n  jump\t// in\ntag_1:\n  pop\n    /* \"contracts/MyContract3.sol\":207:259  constructor()  {... */\n  callvalue\n  dup1\n  iszero\n  tag_3\n  jumpi\n  0x00\n  dup1\n  revert\ntag_3:\n  pop\n    /* \"contracts/MyContract3.sol\":241:251  msg.sender */\n  caller\n    /* \"contracts/MyContract3.sol\":233:238  owner */\n  0x01\n  0x00\n    /* \"contracts/MyContract3.sol\":233:251  owner = msg.sender */\n  0x0100\n  exp\n  dup2\n  sload\n  dup2\n  0xffffffffffffffffffffffffffffffffffffffff\n  mul\n  not\n  and\n  swap1\n  dup4\n  0xffffffffffffffffffffffffffffffffffffffff\n  and\n  mul\n  or\n  swap1\n  sstore\n  pop\n    /* \"contracts/MyContract3.sol\":61:803  contract MyContract3{... */\n  jump(tag_6)\ntag_2:\n  dup3\n  dup1\n  sload\n  dup3\n  dup3\n  sstore\n  swap1\n  0x00\n  mstore\n  keccak256(0x00, 0x20)\n  swap1\n  dup2\n  add\n  swap3\n  dup3\n  iszero\n  tag_7\n  jumpi\n  swap2\n  0x20\n  mul\n  dup3\n  add\ntag_8:\n  dup3\n  dup2\n  gt\n  iszero\n  tag_9\n  jumpi\n  dup3\n  mload\n  dup3\n  swap1\n  0xff\n  and\n  swap1\n  sstore\n  swap2\n  0x20\n  add\n  swap2\n  swap1\n  0x01\n  add\n  swap1\n  jump(tag_8)\ntag_9:\ntag_7:\n  pop\n  swap1\n  pop\n  tag_10\n  swap2\n  swap1\n  tag_11\n  jump\t// in\ntag_10:\n  pop\n  swap1\n  jump\t// out\ntag_11:\ntag_12:\n  dup1\n  dup3\n  gt\n  iszero\n  tag_13\n  jumpi\n  0x00\n  dup2\n  0x00\n  swap1\n  sstore\n  pop\n  0x01\n  add\n  jump(tag_12)\ntag_13:\n  pop\n  swap1\n  jump\t// out\ntag_6:\n  dataSize(sub_0)\n  dup1\n  dataOffset(sub_0)\n  0x00\n  codecopy\n  0x00\n  return\nstop\n\nsub_0: assembly {\n        /* \"contracts/MyContract3.sol\":61:803  contract MyContract3{... */\n      mstore(0x40, 0x80)\n      callvalue\n      dup1\n      iszero\n      tag_1\n      jumpi\n      0x00\n      dup1\n      revert\n    tag_1:\n      pop\n      jumpi(tag_2, lt(calldatasize, 0x04))\n      shr(0xe0, calldataload(0x00))\n      dup1\n      0x2a2e1320\n      eq\n      tag_3\n      jumpi\n      dup1\n      0x306d3e02\n      eq\n      tag_4\n      jumpi\n      dup1\n      0x8da5cb5b\n      eq\n      tag_5\n      jumpi\n      dup1\n      0x8f32d59b\n      eq\n      tag_6\n      jumpi\n      dup1\n      0xd39fa233\n      eq\n      tag_7\n      jumpi\n    tag_2:\n      0x00\n      dup1\n      revert\n        /* \"contracts/MyContract3.sol\":516:687  function isEven(uint _number) public pure returns (bool){... */\n    tag_3:\n      tag_8\n      0x04\n      dup1\n      calldatasize\n      sub\n      dup2\n      add\n      swap1\n      tag_9\n      swap2\n      swap1\n      tag_10\n      jump\t// in\n    tag_9:\n      tag_11\n      jump\t// in\n    tag_8:\n      mload(0x40)\n      tag_12\n      swap2\n      swap1\n      tag_13\n      jump\t// in\n    tag_12:\n      mload(0x40)\n      dup1\n      swap2\n      sub\n      swap1\n      return\n        /* \"contracts/MyContract3.sol\":269:508  function countEvenNumbers() public view returns (uint){... */\n    tag_4:\n      tag_14\n      tag_15\n      jump\t// in\n    tag_14:\n      mload(0x40)\n      tag_16\n      swap2\n      swap1\n      tag_17\n      jump\t// in\n    tag_16:\n      mload(0x40)\n      dup1\n      swap2\n      sub\n      swap1\n      return\n        /* \"contracts/MyContract3.sol\":178:198  address public owner */\n    tag_5:\n      tag_18\n      tag_19\n      jump\t// in\n    tag_18:\n      mload(0x40)\n      tag_20\n      swap2\n      swap1\n      tag_21\n      jump\t// in\n    tag_20:\n      mload(0x40)\n      dup1\n      swap2\n      sub\n      swap1\n      return\n        /* \"contracts/MyContract3.sol\":695:794  function isOwner() public view returns (bool){... */\n    tag_6:\n      tag_22\n      tag_23\n      jump\t// in\n    tag_22:\n      mload(0x40)\n      tag_24\n      swap2\n      swap1\n      tag_13\n      jump\t// in\n    tag_24:\n      mload(0x40)\n      dup1\n      swap2\n      sub\n      swap1\n      return\n        /* \"contracts/MyContract3.sol\":123:169  uint[] public numbers = [1,2,3,4,5,6,7,8,9,10] */\n    tag_7:\n      tag_25\n      0x04\n      dup1\n      calldatasize\n      sub\n      dup2\n      add\n      swap1\n      tag_26\n      swap2\n      swap1\n      tag_10\n      jump\t// in\n    tag_26:\n      tag_27\n      jump\t// in\n    tag_25:\n      mload(0x40)\n      tag_28\n      swap2\n      swap1\n      tag_17\n      jump\t// in\n    tag_28:\n      mload(0x40)\n      dup1\n      swap2\n      sub\n      swap1\n      return\n        /* \"contracts/MyContract3.sol\":516:687  function isEven(uint _number) public pure returns (bool){... */\n    tag_11:\n        /* \"contracts/MyContract3.sol\":567:571  bool */\n      0x00\n        /* \"contracts/MyContract3.sol\":597:598  0 */\n      dup1\n        /* \"contracts/MyContract3.sol\":594:595  2 */\n      0x02\n        /* \"contracts/MyContract3.sol\":586:593  _number */\n      dup4\n        /* \"contracts/MyContract3.sol\":586:595  _number%2 */\n      tag_30\n      swap2\n      swap1\n      tag_31\n      jump\t// in\n    tag_30:\n        /* \"contracts/MyContract3.sol\":586:598  _number%2==0 */\n      sub\n        /* \"contracts/MyContract3.sol\":583:680  if(_number%2==0){... */\n      tag_32\n      jumpi\n        /* \"contracts/MyContract3.sol\":621:625  true */\n      0x01\n        /* \"contracts/MyContract3.sol\":614:625  return true */\n      swap1\n      pop\n      jump(tag_29)\n        /* \"contracts/MyContract3.sol\":583:680  if(_number%2==0){... */\n    tag_32:\n        /* \"contracts/MyContract3.sol\":663:668  false */\n      0x00\n        /* \"contracts/MyContract3.sol\":656:668  return false */\n      swap1\n      pop\n        /* \"contracts/MyContract3.sol\":516:687  function isEven(uint _number) public pure returns (bool){... */\n    tag_29:\n      swap2\n      swap1\n      pop\n      jump\t// out\n        /* \"contracts/MyContract3.sol\":269:508  function countEvenNumbers() public view returns (uint){... */\n    tag_15:\n        /* \"contracts/MyContract3.sol\":318:322  uint */\n      0x00\n        /* \"contracts/MyContract3.sol\":334:342  uint cnt */\n      dup1\n        /* \"contracts/MyContract3.sol\":344:345  0 */\n      0x00\n        /* \"contracts/MyContract3.sol\":334:345  uint cnt =0 */\n      swap1\n      pop\n        /* \"contracts/MyContract3.sol\":360:366  uint i */\n      0x00\n        /* \"contracts/MyContract3.sol\":356:480  for(uint i=0; i<numbers.length; i++){... */\n    tag_35:\n        /* \"contracts/MyContract3.sol\":372:379  numbers */\n      0x00\n        /* \"contracts/MyContract3.sol\":372:386  numbers.length */\n      dup1\n      sload\n      swap1\n      pop\n        /* \"contracts/MyContract3.sol\":370:371  i */\n      dup2\n        /* \"contracts/MyContract3.sol\":370:386  i<numbers.length */\n      lt\n        /* \"contracts/MyContract3.sol\":356:480  for(uint i=0; i<numbers.length; i++){... */\n      iszero\n      tag_36\n      jumpi\n        /* \"contracts/MyContract3.sol\":410:428  isEven(numbers[i]) */\n      tag_38\n        /* \"contracts/MyContract3.sol\":417:424  numbers */\n      0x00\n        /* \"contracts/MyContract3.sol\":425:426  i */\n      dup3\n        /* \"contracts/MyContract3.sol\":417:427  numbers[i] */\n      dup2\n      sload\n      dup2\n      lt\n      tag_39\n      jumpi\n      tag_40\n      tag_41\n      jump\t// in\n    tag_40:\n    tag_39:\n      swap1\n      0x00\n      mstore\n      keccak256(0x00, 0x20)\n      add\n      sload\n        /* \"contracts/MyContract3.sol\":410:416  isEven */\n      tag_11\n        /* \"contracts/MyContract3.sol\":410:428  isEven(numbers[i]) */\n      jump\t// in\n    tag_38:\n        /* \"contracts/MyContract3.sol\":407:469  if(isEven(numbers[i])){... */\n      iszero\n      tag_43\n      jumpi\n        /* \"contracts/MyContract3.sol\":448:453  cnt++ */\n      dup2\n      dup1\n      tag_44\n      swap1\n      tag_45\n      jump\t// in\n    tag_44:\n      swap3\n      pop\n      pop\n        /* \"contracts/MyContract3.sol\":407:469  if(isEven(numbers[i])){... */\n    tag_43:\n        /* \"contracts/MyContract3.sol\":388:391  i++ */\n      dup1\n      dup1\n      0x01\n      add\n      swap2\n      pop\n      pop\n        /* \"contracts/MyContract3.sol\":356:480  for(uint i=0; i<numbers.length; i++){... */\n      jump(tag_35)\n    tag_36:\n      pop\n        /* \"contracts/MyContract3.sol\":497:500  cnt */\n      dup1\n        /* \"contracts/MyContract3.sol\":490:500  return cnt */\n      swap2\n      pop\n      pop\n        /* \"contracts/MyContract3.sol\":269:508  function countEvenNumbers() public view returns (uint){... */\n      swap1\n      jump\t// out\n        /* \"contracts/MyContract3.sol\":178:198  address public owner */\n    tag_19:\n      0x01\n      0x00\n      swap1\n      sload\n      swap1\n      0x0100\n      exp\n      swap1\n      div\n      0xffffffffffffffffffffffffffffffffffffffff\n      and\n      dup2\n      jump\t// out\n        /* \"contracts/MyContract3.sol\":695:794  function isOwner() public view returns (bool){... */\n    tag_23:\n        /* \"contracts/MyContract3.sol\":735:739  bool */\n      0x00\n        /* \"contracts/MyContract3.sol\":770:775  owner */\n      0x01\n      0x00\n      swap1\n      sload\n      swap1\n      0x0100\n      exp\n      swap1\n      div\n      0xffffffffffffffffffffffffffffffffffffffff\n      and\n        /* \"contracts/MyContract3.sol\":758:775  msg.sender==owner */\n      0xffffffffffffffffffffffffffffffffffffffff\n      and\n        /* \"contracts/MyContract3.sol\":758:768  msg.sender */\n      caller\n        /* \"contracts/MyContract3.sol\":758:775  msg.sender==owner */\n      0xffffffffffffffffffffffffffffffffffffffff\n      and\n      eq\n        /* \"contracts/MyContract3.sol\":751:776  return(msg.sender==owner) */\n      swap1\n      pop\n        /* \"contracts/MyContract3.sol\":695:794  function isOwner() public view returns (bool){... */\n      swap1\n      jump\t// out\n        /* \"contracts/MyContract3.sol\":123:169  uint[] public numbers = [1,2,3,4,5,6,7,8,9,10] */\n    tag_27:\n      0x00\n      dup2\n      dup2\n      sload\n      dup2\n      lt\n      tag_47\n      jumpi\n      0x00\n      dup1\n      revert\n    tag_47:\n      swap1\n      0x00\n      mstore\n      keccak256(0x00, 0x20)\n      add\n      0x00\n      swap2\n      pop\n      swap1\n      pop\n      sload\n      dup2\n      jump\t// out\n        /* \"#utility.yul\":88:205   */\n    tag_50:\n        /* \"#utility.yul\":197:198   */\n      0x00\n        /* \"#utility.yul\":194:195   */\n      dup1\n        /* \"#utility.yul\":187:199   */\n      revert\n        /* \"#utility.yul\":334:411   */\n    tag_52:\n        /* \"#utility.yul\":371:378   */\n      0x00\n        /* \"#utility.yul\":400:405   */\n      dup2\n        /* \"#utility.yul\":389:405   */\n      swap1\n      pop\n        /* \"#utility.yul\":334:411   */\n      swap2\n      swap1\n      pop\n      jump\t// out\n        /* \"#utility.yul\":417:539   */\n    tag_53:\n        /* \"#utility.yul\":490:514   */\n      tag_69\n        /* \"#utility.yul\":508:513   */\n      dup2\n        /* \"#utility.yul\":490:514   */\n      tag_52\n      jump\t// in\n    tag_69:\n        /* \"#utility.yul\":483:488   */\n      dup2\n        /* \"#utility.yul\":480:515   */\n      eq\n        /* \"#utility.yul\":470:533   */\n      tag_70\n      jumpi\n        /* \"#utility.yul\":529:530   */\n      0x00\n        /* \"#utility.yul\":526:527   */\n      dup1\n        /* \"#utility.yul\":519:531   */\n      revert\n        /* \"#utility.yul\":470:533   */\n    tag_70:\n        /* \"#utility.yul\":417:539   */\n      pop\n      jump\t// out\n        /* \"#utility.yul\":545:684   */\n    tag_54:\n        /* \"#utility.yul\":591:596   */\n      0x00\n        /* \"#utility.yul\":629:635   */\n      dup2\n        /* \"#utility.yul\":616:636   */\n      calldataload\n        /* \"#utility.yul\":607:636   */\n      swap1\n      pop\n        /* \"#utility.yul\":645:678   */\n      tag_72\n        /* \"#utility.yul\":672:677   */\n      dup2\n        /* \"#utility.yul\":645:678   */\n      tag_53\n      jump\t// in\n    tag_72:\n        /* \"#utility.yul\":545:684   */\n      swap3\n      swap2\n      pop\n      pop\n      jump\t// out\n        /* \"#utility.yul\":690:1019   */\n    tag_10:\n        /* \"#utility.yul\":749:755   */\n      0x00\n        /* \"#utility.yul\":798:800   */\n      0x20\n        /* \"#utility.yul\":786:795   */\n      dup3\n        /* \"#utility.yul\":777:784   */\n      dup5\n        /* \"#utility.yul\":773:796   */\n      sub\n        /* \"#utility.yul\":769:801   */\n      slt\n        /* \"#utility.yul\":766:885   */\n      iszero\n      tag_74\n      jumpi\n        /* \"#utility.yul\":804:883   */\n      tag_75\n      tag_50\n      jump\t// in\n    tag_75:\n        /* \"#utility.yul\":766:885   */\n    tag_74:\n        /* \"#utility.yul\":924:925   */\n      0x00\n        /* \"#utility.yul\":949:1002   */\n      tag_76\n        /* \"#utility.yul\":994:1001   */\n      dup5\n        /* \"#utility.yul\":985:991   */\n      dup3\n        /* \"#utility.yul\":974:983   */\n      dup6\n        /* \"#utility.yul\":970:992   */\n      add\n        /* \"#utility.yul\":949:1002   */\n      tag_54\n      jump\t// in\n    tag_76:\n        /* \"#utility.yul\":939:1002   */\n      swap2\n      pop\n        /* \"#utility.yul\":895:1012   */\n      pop\n        /* \"#utility.yul\":690:1019   */\n      swap3\n      swap2\n      pop\n      pop\n      jump\t// out\n        /* \"#utility.yul\":1025:1115   */\n    tag_55:\n        /* \"#utility.yul\":1059:1066   */\n      0x00\n        /* \"#utility.yul\":1102:1107   */\n      dup2\n        /* \"#utility.yul\":1095:1108   */\n      iszero\n        /* \"#utility.yul\":1088:1109   */\n      iszero\n        /* \"#utility.yul\":1077:1109   */\n      swap1\n      pop\n        /* \"#utility.yul\":1025:1115   */\n      swap2\n      swap1\n      pop\n      jump\t// out\n        /* \"#utility.yul\":1121:1230   */\n    tag_56:\n        /* \"#utility.yul\":1202:1223   */\n      tag_79\n        /* \"#utility.yul\":1217:1222   */\n      dup2\n        /* \"#utility.yul\":1202:1223   */\n      tag_55\n      jump\t// in\n    tag_79:\n        /* \"#utility.yul\":1197:1200   */\n      dup3\n        /* \"#utility.yul\":1190:1224   */\n      mstore\n        /* \"#utility.yul\":1121:1230   */\n      pop\n      pop\n      jump\t// out\n        /* \"#utility.yul\":1236:1446   */\n    tag_13:\n        /* \"#utility.yul\":1323:1327   */\n      0x00\n        /* \"#utility.yul\":1361:1363   */\n      0x20\n        /* \"#utility.yul\":1350:1359   */\n      dup3\n        /* \"#utility.yul\":1346:1364   */\n      add\n        /* \"#utility.yul\":1338:1364   */\n      swap1\n      pop\n        /* \"#utility.yul\":1374:1439   */\n      tag_81\n        /* \"#utility.yul\":1436:1437   */\n      0x00\n        /* \"#utility.yul\":1425:1434   */\n      dup4\n        /* \"#utility.yul\":1421:1438   */\n      add\n        /* \"#utility.yul\":1412:1418   */\n      dup5\n        /* \"#utility.yul\":1374:1439   */\n      tag_56\n      jump\t// in\n    tag_81:\n        /* \"#utility.yul\":1236:1446   */\n      swap3\n      swap2\n      pop\n      pop\n      jump\t// out\n        /* \"#utility.yul\":1452:1570   */\n    tag_57:\n        /* \"#utility.yul\":1539:1563   */\n      tag_83\n        /* \"#utility.yul\":1557:1562   */\n      dup2\n        /* \"#utility.yul\":1539:1563   */\n      tag_52\n      jump\t// in\n    tag_83:\n        /* \"#utility.yul\":1534:1537   */\n      dup3\n        /* \"#utility.yul\":1527:1564   */\n      mstore\n        /* \"#utility.yul\":1452:1570   */\n      pop\n      pop\n      jump\t// out\n        /* \"#utility.yul\":1576:1798   */\n    tag_17:\n        /* \"#utility.yul\":1669:1673   */\n      0x00\n        /* \"#utility.yul\":1707:1709   */\n      0x20\n        /* \"#utility.yul\":1696:1705   */\n      dup3\n        /* \"#utility.yul\":1692:1710   */\n      add\n        /* \"#utility.yul\":1684:1710   */\n      swap1\n      pop\n        /* \"#utility.yul\":1720:1791   */\n      tag_85\n        /* \"#utility.yul\":1788:1789   */\n      0x00\n        /* \"#utility.yul\":1777:1786   */\n      dup4\n        /* \"#utility.yul\":1773:1790   */\n      add\n        /* \"#utility.yul\":1764:1770   */\n      dup5\n        /* \"#utility.yul\":1720:1791   */\n      tag_57\n      jump\t// in\n    tag_85:\n        /* \"#utility.yul\":1576:1798   */\n      swap3\n      swap2\n      pop\n      pop\n      jump\t// out\n        /* \"#utility.yul\":1804:1930   */\n    tag_58:\n        /* \"#utility.yul\":1841:1848   */\n      0x00\n        /* \"#utility.yul\":1881:1923   */\n      0xffffffffffffffffffffffffffffffffffffffff\n        /* \"#utility.yul\":1874:1879   */\n      dup3\n        /* \"#utility.yul\":1870:1924   */\n      and\n        /* \"#utility.yul\":1859:1924   */\n      swap1\n      pop\n        /* \"#utility.yul\":1804:1930   */\n      swap2\n      swap1\n      pop\n      jump\t// out\n        /* \"#utility.yul\":1936:2032   */\n    tag_59:\n        /* \"#utility.yul\":1973:1980   */\n      0x00\n        /* \"#utility.yul\":2002:2026   */\n      tag_88\n        /* \"#utility.yul\":2020:2025   */\n      dup3\n        /* \"#utility.yul\":2002:2026   */\n      tag_58\n      jump\t// in\n    tag_88:\n        /* \"#utility.yul\":1991:2026   */\n      swap1\n      pop\n        /* \"#utility.yul\":1936:2032   */\n      swap2\n      swap1\n      pop\n      jump\t// out\n        /* \"#utility.yul\":2038:2156   */\n    tag_60:\n        /* \"#utility.yul\":2125:2149   */\n      tag_90\n        /* \"#utility.yul\":2143:2148   */\n      dup2\n        /* \"#utility.yul\":2125:2149   */\n      tag_59\n      jump\t// in\n    tag_90:\n        /* \"#utility.yul\":2120:2123   */\n      dup3\n        /* \"#utility.yul\":2113:2150   */\n      mstore\n        /* \"#utility.yul\":2038:2156   */\n      pop\n      pop\n      jump\t// out\n        /* \"#utility.yul\":2162:2384   */\n    tag_21:\n        /* \"#utility.yul\":2255:2259   */\n      0x00\n        /* \"#utility.yul\":2293:2295   */\n      0x20\n        /* \"#utility.yul\":2282:2291   */\n      dup3\n        /* \"#utility.yul\":2278:2296   */\n      add\n        /* \"#utility.yul\":2270:2296   */\n      swap1\n      pop\n        /* \"#utility.yul\":2306:2377   */\n      tag_92\n        /* \"#utility.yul\":2374:2375   */\n      0x00\n        /* \"#utility.yul\":2363:2372   */\n      dup4\n        /* \"#utility.yul\":2359:2376   */\n      add\n        /* \"#utility.yul\":2350:2356   */\n      dup5\n        /* \"#utility.yul\":2306:2377   */\n      tag_60\n      jump\t// in\n    tag_92:\n        /* \"#utility.yul\":2162:2384   */\n      swap3\n      swap2\n      pop\n      pop\n      jump\t// out\n        /* \"#utility.yul\":2390:2570   */\n    tag_61:\n        /* \"#utility.yul\":2438:2515   */\n      0x4e487b7100000000000000000000000000000000000000000000000000000000\n        /* \"#utility.yul\":2435:2436   */\n      0x00\n        /* \"#utility.yul\":2428:2516   */\n      mstore\n        /* \"#utility.yul\":2535:2539   */\n      0x12\n        /* \"#utility.yul\":2532:2533   */\n      0x04\n        /* \"#utility.yul\":2525:2540   */\n      mstore\n        /* \"#utility.yul\":2559:2563   */\n      0x24\n        /* \"#utility.yul\":2556:2557   */\n      0x00\n        /* \"#utility.yul\":2549:2564   */\n      revert\n        /* \"#utility.yul\":2576:2752   */\n    tag_31:\n        /* \"#utility.yul\":2608:2609   */\n      0x00\n        /* \"#utility.yul\":2625:2645   */\n      tag_95\n        /* \"#utility.yul\":2643:2644   */\n      dup3\n        /* \"#utility.yul\":2625:2645   */\n      tag_52\n      jump\t// in\n    tag_95:\n        /* \"#utility.yul\":2620:2645   */\n      swap2\n      pop\n        /* \"#utility.yul\":2659:2679   */\n      tag_96\n        /* \"#utility.yul\":2677:2678   */\n      dup4\n        /* \"#utility.yul\":2659:2679   */\n      tag_52\n      jump\t// in\n    tag_96:\n        /* \"#utility.yul\":2654:2679   */\n      swap3\n      pop\n        /* \"#utility.yul\":2698:2699   */\n      dup3\n        /* \"#utility.yul\":2688:2723   */\n      tag_97\n      jumpi\n        /* \"#utility.yul\":2703:2721   */\n      tag_98\n      tag_61\n      jump\t// in\n    tag_98:\n        /* \"#utility.yul\":2688:2723   */\n    tag_97:\n        /* \"#utility.yul\":2744:2745   */\n      dup3\n        /* \"#utility.yul\":2741:2742   */\n      dup3\n        /* \"#utility.yul\":2737:2746   */\n      mod\n        /* \"#utility.yul\":2732:2746   */\n      swap1\n      pop\n        /* \"#utility.yul\":2576:2752   */\n      swap3\n      swap2\n      pop\n      pop\n      jump\t// out\n        /* \"#utility.yul\":2758:2938   */\n    tag_41:\n        /* \"#utility.yul\":2806:2883   */\n      0x4e487b7100000000000000000000000000000000000000000000000000000000\n        /* \"#utility.yul\":2803:2804   */\n      0x00\n        /* \"#utility.yul\":2796:2884   */\n      mstore\n        /* \"#utility.yul\":2903:2907   */\n      0x32\n        /* \"#utility.yul\":2900:2901   */\n      0x04\n        /* \"#utility.yul\":2893:2908   */\n      mstore\n        /* \"#utility.yul\":2927:2931   */\n      0x24\n        /* \"#utility.yul\":2924:2925   */\n      0x00\n        /* \"#utility.yul\":2917:2932   */\n      revert\n        /* \"#utility.yul\":2944:3124   */\n    tag_62:\n        /* \"#utility.yul\":2992:3069   */\n      0x4e487b7100000000000000000000000000000000000000000000000000000000\n        /* \"#utility.yul\":2989:2990   */\n      0x00\n        /* \"#utility.yul\":2982:3070   */\n      mstore\n        /* \"#utility.yul\":3089:3093   */\n      0x11\n        /* \"#utility.yul\":3086:3087   */\n      0x04\n        /* \"#utility.yul\":3079:3094   */\n      mstore\n        /* \"#utility.yul\":3113:3117   */\n      0x24\n        /* \"#utility.yul\":3110:3111   */\n      0x00\n        /* \"#utility.yul\":3103:3118   */\n      revert\n        /* \"#utility.yul\":3130:3363   */\n    tag_45:\n        /* \"#utility.yul\":3169:3172   */\n      0x00\n        /* \"#utility.yul\":3192:3216   */\n      tag_102\n        /* \"#utility.yul\":3210:3215   */\n      dup3\n        /* \"#utility.yul\":3192:3216   */\n      tag_52\n      jump\t// in\n    tag_102:\n        /* \"#utility.yul\":3183:3216   */\n      swap2\n      pop\n        /* \"#utility.yul\":3238:3304   */\n      0xffffffffffffffffffffffffffffffffffffffffffffffffffffffffffffffff\n        /* \"#utility.yul\":3231:3236   */\n      dup3\n        /* \"#utility.yul\":3228:3305   */\n      sub\n        /* \"#utility.yul\":3225:3328   */\n      tag_103\n      jumpi\n        /* \"#utility.yul\":3308:3326   */\n      tag_104\n      tag_62\n      jump\t// in\n    tag_104:\n        /* \"#utility.yul\":3225:3328   */\n    tag_103:\n        /* \"#utility.yul\":3355:3356   */\n      0x01\n        /* \"#utility.yul\":3348:3353   */\n      dup3\n        /* \"#utility.yul\":3344:3357   */\n      add\n        /* \"#utility.yul\":3337:3357   */\n      swap1\n      pop\n        /* \"#utility.yul\":3130:3363   */\n      swap2\n      swap1\n      pop\n      jump\t// out\n\n    auxdata: 0xa26469706673582212205beac12486bc627c3969ec9aded853ebbe0946aad6fb18d115c9ac8d71bca5f264736f6c63430008190033\n}\n",
				"bytecode": {
					"linkReferences": {},
					"object": "6080604052604051806101400160405280600160ff168152602001600260ff168152602001600360ff168152602001600460ff168152602001600560ff168152602001600660ff168152602001600760ff168152602001600860ff168152602001600960ff168152602001600a60ff168152505f90600a6100819291906100d3565b5034801561008d575f80fd5b503360015f6101000a81548173ffffffffffffffffffffffffffffffffffffffff021916908373ffffffffffffffffffffffffffffffffffffffff16021790555061013e565b828054828255905f5260205f20908101928215610112579160200282015b82811115610111578251829060ff169055916020019190600101906100f1565b5b50905061011f9190610123565b5090565b5b8082111561013a575f815f905550600101610124565b5090565b61047c8061014b5f395ff3fe608060405234801561000f575f80fd5b5060043610610055575f3560e01c80632a2e132014610059578063306d3e02146100895780638da5cb5b146100a75780638f32d59b146100c5578063d39fa233146100e3575b5f80fd5b610073600480360381019061006e919061026a565b610113565b60405161008091906102af565b60405180910390f35b610091610139565b60405161009e91906102d7565b60405180910390f35b6100af610199565b6040516100bc919061032f565b60405180910390f35b6100cd6101be565b6040516100da91906102af565b60405180910390f35b6100fd60048036038101906100f8919061026a565b610214565b60405161010a91906102d7565b60405180910390f35b5f806002836101229190610375565b036101305760019050610134565b5f90505b919050565b5f805f90505f5b5f80549050811015610191576101705f8281548110610162576101616103a5565b5b905f5260205f200154610113565b15610184578180610180906103ff565b9250505b8080600101915050610140565b508091505090565b60015f9054906101000a900473ffffffffffffffffffffffffffffffffffffffff1681565b5f60015f9054906101000a900473ffffffffffffffffffffffffffffffffffffffff1673ffffffffffffffffffffffffffffffffffffffff163373ffffffffffffffffffffffffffffffffffffffff1614905090565b5f8181548110610222575f80fd5b905f5260205f20015f915090505481565b5f80fd5b5f819050919050565b61024981610237565b8114610253575f80fd5b50565b5f8135905061026481610240565b92915050565b5f6020828403121561027f5761027e610233565b5b5f61028c84828501610256565b91505092915050565b5f8115159050919050565b6102a981610295565b82525050565b5f6020820190506102c25f8301846102a0565b92915050565b6102d181610237565b82525050565b5f6020820190506102ea5f8301846102c8565b92915050565b5f73ffffffffffffffffffffffffffffffffffffffff82169050919050565b5f610319826102f0565b9050919050565b6103298161030f565b82525050565b5f6020820190506103425f830184610320565b92915050565b7f4e487b71000000000000000000000000000000000000000000000000000000005f52601260045260245ffd5b5f61037f82610237565b915061038a83610237565b92508261039a57610399610348565b5b828206905092915050565b7f4e487b71000000000000000000000000000000000000000000000000000000005f52603260045260245ffd5b7f4e487b71000000000000000000000000000000000000000000000000000000005f52601160045260245ffd5b5f61040982610237565b91507fffffffffffffffffffffffffffffffffffffffffffffffffffffffffffffffff820361043b5761043a6103d2565b5b60018201905091905056fea26469706673582212205beac12486bc627c3969ec9aded853ebbe0946aad6fb18d115c9ac8d71bca5f264736f6c63430008190033",
					"opcodes": "PUSH1 0x80 PUSH1 0x40 MSTORE PUSH1 0x40 MLOAD DUP1 PUSH2 0x140 ADD PUSH1 0x40 MSTORE DUP1 PUSH1 0x1 PUSH1 0xFF AND DUP2 MSTORE PUSH1 0x20 ADD PUSH1 0x2 PUSH1 0xFF AND DUP2 MSTORE PUSH1 0x20 ADD PUSH1 0x3 PUSH1 0xFF AND DUP2 MSTORE PUSH1 0x20 ADD PUSH1 0x4 PUSH1 0xFF AND DUP2 MSTORE PUSH1 0x20 ADD PUSH1 0x5 PUSH1 0xFF AND DUP2 MSTORE PUSH1 0x20 ADD PUSH1 0x6 PUSH1 0xFF AND DUP2 MSTORE PUSH1 0x20 ADD PUSH1 0x7 PUSH1 0xFF AND DUP2 MSTORE PUSH1 0x20 ADD PUSH1 0x8 PUSH1 0xFF AND DUP2 MSTORE PUSH1 0x20 ADD PUSH1 0x9 PUSH1 0xFF AND DUP2 MSTORE PUSH1 0x20 ADD PUSH1 0xA PUSH1 0xFF AND DUP2 MSTORE POP PUSH0 SWAP1 PUSH1 0xA PUSH2 0x81 SWAP3 SWAP2 SWAP1 PUSH2 0xD3 JUMP JUMPDEST POP CALLVALUE DUP1 ISZERO PUSH2 0x8D JUMPI PUSH0 DUP1 REVERT JUMPDEST POP CALLER PUSH1 0x1 PUSH0 PUSH2 0x100 EXP DUP2 SLOAD DUP2 PUSH20 0xFFFFFFFFFFFFFFFFFFFFFFFFFFFFFFFFFFFFFFFF MUL NOT AND SWAP1 DUP4 PUSH20 0xFFFFFFFFFFFFFFFFFFFFFFFFFFFFFFFFFFFFFFFF AND MUL OR SWAP1 SSTORE POP PUSH2 0x13E JUMP JUMPDEST DUP3 DUP1 SLOAD DUP3 DUP3 SSTORE SWAP1 PUSH0 MSTORE PUSH1 0x20 PUSH0 KECCAK256 SWAP1 DUP2 ADD SWAP3 DUP3 ISZERO PUSH2 0x112 JUMPI SWAP2 PUSH1 0x20 MUL DUP3 ADD JUMPDEST DUP3 DUP2 GT ISZERO PUSH2 0x111 JUMPI DUP3 MLOAD DUP3 SWAP1 PUSH1 0xFF AND SWAP1 SSTORE SWAP2 PUSH1 0x20 ADD SWAP2 SWAP1 PUSH1 0x1 ADD SWAP1 PUSH2 0xF1 JUMP JUMPDEST JUMPDEST POP SWAP1 POP PUSH2 0x11F SWAP2 SWAP1 PUSH2 0x123 JUMP JUMPDEST POP SWAP1 JUMP JUMPDEST JUMPDEST DUP1 DUP3 GT ISZERO PUSH2 0x13A JUMPI PUSH0 DUP2 PUSH0 SWAP1 SSTORE POP PUSH1 0x1 ADD PUSH2 0x124 JUMP JUMPDEST POP SWAP1 JUMP JUMPDEST PUSH2 0x47C DUP1 PUSH2 0x14B PUSH0 CODECOPY PUSH0 RETURN INVALID PUSH1 0x80 PUSH1 0x40 MSTORE CALLVALUE DUP1 ISZERO PUSH2 0xF JUMPI PUSH0 DUP1 REVERT JUMPDEST POP PUSH1 0x4 CALLDATASIZE LT PUSH2 0x55 JUMPI PUSH0 CALLDATALOAD PUSH1 0xE0 SHR DUP1 PUSH4 0x2A2E1320 EQ PUSH2 0x59 JUMPI DUP1 PUSH4 0x306D3E02 EQ PUSH2 0x89 JUMPI DUP1 PUSH4 0x8DA5CB5B EQ PUSH2 0xA7 JUMPI DUP1 PUSH4 0x8F32D59B EQ PUSH2 0xC5 JUMPI DUP1 PUSH4 0xD39FA233 EQ PUSH2 0xE3 JUMPI JUMPDEST PUSH0 DUP1 REVERT JUMPDEST PUSH2 0x73 PUSH1 0x4 DUP1 CALLDATASIZE SUB DUP2 ADD SWAP1 PUSH2 0x6E SWAP2 SWAP1 PUSH2 0x26A JUMP JUMPDEST PUSH2 0x113 JUMP JUMPDEST PUSH1 0x40 MLOAD PUSH2 0x80 SWAP2 SWAP1 PUSH2 0x2AF JUMP JUMPDEST PUSH1 0x40 MLOAD DUP1 SWAP2 SUB SWAP1 RETURN JUMPDEST PUSH2 0x91 PUSH2 0x139 JUMP JUMPDEST PUSH1 0x40 MLOAD PUSH2 0x9E SWAP2 SWAP1 PUSH2 0x2D7 JUMP JUMPDEST PUSH1 0x40 MLOAD DUP1 SWAP2 SUB SWAP1 RETURN JUMPDEST PUSH2 0xAF PUSH2 0x199 JUMP JUMPDEST PUSH1 0x40 MLOAD PUSH2 0xBC SWAP2 SWAP1 PUSH2 0x32F JUMP JUMPDEST PUSH1 0x40 MLOAD DUP1 SWAP2 SUB SWAP1 RETURN JUMPDEST PUSH2 0xCD PUSH2 0x1BE JUMP JUMPDEST PUSH1 0x40 MLOAD PUSH2 0xDA SWAP2 SWAP1 PUSH2 0x2AF JUMP JUMPDEST PUSH1 0x40 MLOAD DUP1 SWAP2 SUB SWAP1 RETURN JUMPDEST PUSH2 0xFD PUSH1 0x4 DUP1 CALLDATASIZE SUB DUP2 ADD SWAP1 PUSH2 0xF8 SWAP2 SWAP1 PUSH2 0x26A JUMP JUMPDEST PUSH2 0x214 JUMP JUMPDEST PUSH1 0x40 MLOAD PUSH2 0x10A SWAP2 SWAP1 PUSH2 0x2D7 JUMP JUMPDEST PUSH1 0x40 MLOAD DUP1 SWAP2 SUB SWAP1 RETURN JUMPDEST PUSH0 DUP1 PUSH1 0x2 DUP4 PUSH2 0x122 SWAP2 SWAP1 PUSH2 0x375 JUMP JUMPDEST SUB PUSH2 0x130 JUMPI PUSH1 0x1 SWAP1 POP PUSH2 0x134 JUMP JUMPDEST PUSH0 SWAP1 POP JUMPDEST SWAP2 SWAP1 POP JUMP JUMPDEST PUSH0 DUP1 PUSH0 SWAP1 POP PUSH0 JUMPDEST PUSH0 DUP1 SLOAD SWAP1 POP DUP2 LT ISZERO PUSH2 0x191 JUMPI PUSH2 0x170 PUSH0 DUP3 DUP2 SLOAD DUP2 LT PUSH2 0x162 JUMPI PUSH2 0x161 PUSH2 0x3A5 JUMP JUMPDEST JUMPDEST SWAP1 PUSH0 MSTORE PUSH1 0x20 PUSH0 KECCAK256 ADD SLOAD PUSH2 0x113 JUMP JUMPDEST ISZERO PUSH2 0x184 JUMPI DUP2 DUP1 PUSH2 0x180 SWAP1 PUSH2 0x3FF JUMP JUMPDEST SWAP3 POP POP JUMPDEST DUP1 DUP1 PUSH1 0x1 ADD SWAP2 POP POP PUSH2 0x140 JUMP JUMPDEST POP DUP1 SWAP2 POP POP SWAP1 JUMP JUMPDEST PUSH1 0x1 PUSH0 SWAP1 SLOAD SWAP1 PUSH2 0x100 EXP SWAP1 DIV PUSH20 0xFFFFFFFFFFFFFFFFFFFFFFFFFFFFFFFFFFFFFFFF AND DUP2 JUMP JUMPDEST PUSH0 PUSH1 0x1 PUSH0 SWAP1 SLOAD SWAP1 PUSH2 0x100 EXP SWAP1 DIV PUSH20 0xFFFFFFFFFFFFFFFFFFFFFFFFFFFFFFFFFFFFFFFF AND PUSH20 0xFFFFFFFFFFFFFFFFFFFFFFFFFFFFFFFFFFFFFFFF AND CALLER PUSH20 0xFFFFFFFFFFFFFFFFFFFFFFFFFFFFFFFFFFFFFFFF AND EQ SWAP1 POP SWAP1 JUMP JUMPDEST PUSH0 DUP2 DUP2 SLOAD DUP2 LT PUSH2 0x222 JUMPI PUSH0 DUP1 REVERT JUMPDEST SWAP1 PUSH0 MSTORE PUSH1 0x20 PUSH0 KECCAK256 ADD PUSH0 SWAP2 POP SWAP1 POP SLOAD DUP2 JUMP JUMPDEST PUSH0 DUP1 REVERT JUMPDEST PUSH0 DUP2 SWAP1 POP SWAP2 SWAP1 POP JUMP JUMPDEST PUSH2 0x249 DUP2 PUSH2 0x237 JUMP JUMPDEST DUP2 EQ PUSH2 0x253 JUMPI PUSH0 DUP1 REVERT JUMPDEST POP JUMP JUMPDEST PUSH0 DUP2 CALLDATALOAD SWAP1 POP PUSH2 0x264 DUP2 PUSH2 0x240 JUMP JUMPDEST SWAP3 SWAP2 POP POP JUMP JUMPDEST PUSH0 PUSH1 0x20 DUP3 DUP5 SUB SLT ISZERO PUSH2 0x27F JUMPI PUSH2 0x27E PUSH2 0x233 JUMP JUMPDEST JUMPDEST PUSH0 PUSH2 0x28C DUP5 DUP3 DUP6 ADD PUSH2 0x256 JUMP JUMPDEST SWAP2 POP POP SWAP3 SWAP2 POP POP JUMP JUMPDEST PUSH0 DUP2 ISZERO ISZERO SWAP1 POP SWAP2 SWAP1 POP JUMP JUMPDEST PUSH2 0x2A9 DUP2 PUSH2 0x295 JUMP JUMPDEST DUP3 MSTORE POP POP JUMP JUMPDEST PUSH0 PUSH1 0x20 DUP3 ADD SWAP1 POP PUSH2 0x2C2 PUSH0 DUP4 ADD DUP5 PUSH2 0x2A0 JUMP JUMPDEST SWAP3 SWAP2 POP POP JUMP JUMPDEST PUSH2 0x2D1 DUP2 PUSH2 0x237 JUMP JUMPDEST DUP3 MSTORE POP POP JUMP JUMPDEST PUSH0 PUSH1 0x20 DUP3 ADD SWAP1 POP PUSH2 0x2EA PUSH0 DUP4 ADD DUP5 PUSH2 0x2C8 JUMP JUMPDEST SWAP3 SWAP2 POP POP JUMP JUMPDEST PUSH0 PUSH20 0xFFFFFFFFFFFFFFFFFFFFFFFFFFFFFFFFFFFFFFFF DUP3 AND SWAP1 POP SWAP2 SWAP1 POP JUMP JUMPDEST PUSH0 PUSH2 0x319 DUP3 PUSH2 0x2F0 JUMP JUMPDEST SWAP1 POP SWAP2 SWAP1 POP JUMP JUMPDEST PUSH2 0x329 DUP2 PUSH2 0x30F JUMP JUMPDEST DUP3 MSTORE POP POP JUMP JUMPDEST PUSH0 PUSH1 0x20 DUP3 ADD SWAP1 POP PUSH2 0x342 PUSH0 DUP4 ADD DUP5 PUSH2 0x320 JUMP JUMPDEST SWAP3 SWAP2 POP POP JUMP JUMPDEST PUSH32 0x4E487B7100000000000000000000000000000000000000000000000000000000 PUSH0 MSTORE PUSH1 0x12 PUSH1 0x4 MSTORE PUSH1 0x24 PUSH0 REVERT JUMPDEST PUSH0 PUSH2 0x37F DUP3 PUSH2 0x237 JUMP JUMPDEST SWAP2 POP PUSH2 0x38A DUP4 PUSH2 0x237 JUMP JUMPDEST SWAP3 POP DUP3 PUSH2 0x39A JUMPI PUSH2 0x399 PUSH2 0x348 JUMP JUMPDEST JUMPDEST DUP3 DUP3 MOD SWAP1 POP SWAP3 SWAP2 POP POP JUMP JUMPDEST PUSH32 0x4E487B7100000000000000000000000000000000000000000000000000000000 PUSH0 MSTORE PUSH1 0x32 PUSH1 0x4 MSTORE PUSH1 0x24 PUSH0 REVERT JUMPDEST PUSH32 0x4E487B7100000000000000000000000000000000000000000000000000000000 PUSH0 MSTORE PUSH1 0x11 PUSH1 0x4 MSTORE PUSH1 0x24 PUSH0 REVERT JUMPDEST PUSH0 PUSH2 0x409 DUP3 PUSH2 0x237 JUMP JUMPDEST SWAP2 POP PUSH32 0xFFFFFFFFFFFFFFFFFFFFFFFFFFFFFFFFFFFFFFFFFFFFFFFFFFFFFFFFFFFFFFFF DUP3 SUB PUSH2 0x43B JUMPI PUSH2 0x43A PUSH2 0x3D2 JUMP JUMPDEST JUMPDEST PUSH1 0x1 DUP3 ADD SWAP1 POP SWAP2 SWAP1 POP JUMP INVALID LOG2 PUSH5 0x6970667358 0x22 SLT KECCAK256 JUMPDEST 0xEA 0xC1 0x24 DUP7 0xBC PUSH3 0x7C3969 0xEC SWAP11 0xDE 0xD8 MSTORE8 0xEB 0xBE MULMOD CHAINID 0xAA 0xD6 0xFB XOR 0xD1 ISZERO 0xC9 0xAC DUP14 PUSH18 0xBCA5F264736F6C6343000819003300000000 "
				},
				"gasEstimates": {
					"creation": {
						"codeDepositCost": "229600",
						"executionCost": "infinite",
						"totalCost": "infinite"
					},
					"external": {
						"countEvenNumbers()": "infinite",
						"isEven(uint256)": "infinite",
						"isOwner()": "2534",
						"numbers(uint256)": "infinite",
						"owner()": "2530"
					}
				},
				"methodIdentifiers": {
					"countEvenNumbers()": "306d3e02",
					"isEven(uint256)": "2a2e1320",
					"isOwner()": "8f32d59b",
					"numbers(uint256)": "d39fa233",
					"owner()": "8da5cb5b"
				}
			},
			"storageLayout": {
				"storage": [
					{
						"astId": 15,
						"contract": "contracts/MyContract3.sol:MyContract3",
						"label": "numbers",
						"offset": 0,
						"slot": "0",
						"type": "t_array(t_uint256)dyn_storage"
					},
					{
						"astId": 17,
						"contract": "contracts/MyContract3.sol:MyContract3",
						"label": "owner",
						"offset": 0,
						"slot": "1",
						"type": "t_address"
					}
				],
				"types": {
					"t_address": {
						"encoding": "inplace",
						"label": "address",
						"numberOfBytes": "20"
					},
					"t_array(t_uint256)dyn_storage": {
						"base": "t_uint256",
						"encoding": "dynamic_array",
						"label": "uint256[]",
						"numberOfBytes": "32"
					},
					"t_uint256": {
						"encoding": "inplace",
						"label": "uint256",
						"numberOfBytes": "32"
					}
				}
			},
			"userdoc": {
				"kind": "user",
				"methods": {},
				"version": 1
			}
		}
	}
}